{
  "contractName": "Shop",
  "abi": [
    {
      "inputs": [],
      "payable": false,
      "stateMutability": "nonpayable",
      "type": "constructor"
    },
    {
      "anonymous": false,
      "inputs": [
        {
          "indexed": true,
          "internalType": "uint256",
          "name": "productId",
          "type": "uint256"
        },
        {
          "indexed": true,
          "internalType": "address",
          "name": "buyer",
          "type": "address"
        },
        {
          "indexed": false,
          "internalType": "uint256",
          "name": "price",
          "type": "uint256"
        }
      ],
      "name": "ProductPurchased",
      "type": "event"
    },
    {
      "constant": true,
      "inputs": [
        {
          "internalType": "uint256",
          "name": "",
          "type": "uint256"
        }
      ],
      "name": "buyers",
      "outputs": [
        {
          "internalType": "address",
          "name": "",
          "type": "address"
        }
      ],
      "payable": false,
      "stateMutability": "view",
      "type": "function"
    },
    {
      "constant": true,
      "inputs": [],
      "name": "owner",
      "outputs": [
        {
          "internalType": "address payable",
          "name": "",
          "type": "address"
        }
      ],
      "payable": false,
      "stateMutability": "view",
      "type": "function"
    },
    {
      "constant": true,
      "inputs": [
        {
          "internalType": "uint256",
          "name": "",
          "type": "uint256"
        }
      ],
      "name": "prices",
      "outputs": [
        {
          "internalType": "uint256",
          "name": "",
          "type": "uint256"
        }
      ],
      "payable": false,
      "stateMutability": "view",
      "type": "function"
    },
    {
      "constant": false,
      "inputs": [
        {
          "internalType": "uint256",
          "name": "productId",
          "type": "uint256"
        }
      ],
      "name": "buyProduct",
      "outputs": [
        {
          "internalType": "bool",
          "name": "",
          "type": "bool"
        }
      ],
      "payable": true,
      "stateMutability": "payable",
      "type": "function"
    },
    {
      "constant": true,
      "inputs": [],
      "name": "getBuyers",
      "outputs": [
        {
          "internalType": "address[6]",
          "name": "",
          "type": "address[6]"
        }
      ],
      "payable": false,
      "stateMutability": "view",
      "type": "function"
    },
    {
      "constant": false,
      "inputs": [],
      "name": "withdraw",
      "outputs": [],
      "payable": false,
      "stateMutability": "nonpayable",
      "type": "function"
    },
    {
      "constant": true,
      "inputs": [
        {
          "internalType": "uint256",
          "name": "productId",
          "type": "uint256"
        }
      ],
      "name": "getPrice",
      "outputs": [
        {
          "internalType": "uint256",
          "name": "",
          "type": "uint256"
        }
      ],
      "payable": false,
      "stateMutability": "view",
      "type": "function"
    }
  ],
  "bytecode": "0x60806040526040518060c00160405280662386f26fc1000066ffffffffffffff1681526020016611c37937e0800066ffffffffffffff1681526020016611c37937e0800066ffffffffffffff1681526020016611c37937e0800066ffffffffffffff1681526020016611c37937e0800066ffffffffffffff1681526020016611c37937e0800066ffffffffffffff1681525060079060066100a19291906100f4565b503480156100ae57600080fd5b50336000806101000a81548173ffffffffffffffffffffffffffffffffffffffff021916908373ffffffffffffffffffffffffffffffffffffffff160217905550610164565b826006810192821561012e579160200282015b8281111561012d578251829066ffffffffffffff16905591602001919060010190610107565b5b50905061013b919061013f565b5090565b61016191905b8082111561015d576000816000905550600101610145565b5090565b90565b610808806101736000396000f3fe6080604052600436106100705760003560e01c8063bc31c1c11161004e578063bc31c1c114610129578063e757223014610178578063f2aa8218146101c7578063f64bfaba1461024257610070565b80633ccfd60b146100755780638642269e1461008c5780638da5cb5b146100d2575b600080fd5b34801561008157600080fd5b5061008a610295565b005b6100b8600480360360208110156100a257600080fd5b81019080803590602001909291905050506103c1565b604051808215151515815260200191505060405180910390f35b3480156100de57600080fd5b506100e7610632565b604051808273ffffffffffffffffffffffffffffffffffffffff1673ffffffffffffffffffffffffffffffffffffffff16815260200191505060405180910390f35b34801561013557600080fd5b506101626004803603602081101561014c57600080fd5b8101908080359060200190929190505050610657565b6040518082815260200191505060405180910390f35b34801561018457600080fd5b506101b16004803603602081101561019b57600080fd5b810190808035906020019092919050505061066f565b6040518082815260200191505060405180910390f35b3480156101d357600080fd5b50610200600480360360208110156101ea57600080fd5b81019080803590602001909291905050506106fd565b604051808273ffffffffffffffffffffffffffffffffffffffff1673ffffffffffffffffffffffffffffffffffffffff16815260200191505060405180910390f35b34801561024e57600080fd5b50610257610730565b6040518082600660200280838360005b83811015610282578082015181840152602081019050610267565b5050505090500191505060405180910390f35b6000809054906101000a900473ffffffffffffffffffffffffffffffffffffffff1673ffffffffffffffffffffffffffffffffffffffff163373ffffffffffffffffffffffffffffffffffffffff1614610357576040517f08c379a000000000000000000000000000000000000000000000000000000000815260040180806020018281038252601b8152602001807fe58faae69c89e7aea1e79086e59198e58fafe4bba5e68f90e78eb0000000000081525060200191505060405180910390fd5b6000809054906101000a900473ffffffffffffffffffffffffffffffffffffffff1673ffffffffffffffffffffffffffffffffffffffff166108fc479081150290604051600060405180830381858888f193505050501580156103be573d6000803e3d6000fd5b50565b600060068210610439576040517f08c379a00000000000000000000000000000000000000000000000000000000081526004018080602001828103825260128152602001807fe59586e59381e7bc96e58fb7e697a0e69588000000000000000000000000000081525060200191505060405180910390fd5b600073ffffffffffffffffffffffffffffffffffffffff166001836006811061045e57fe5b0160009054906101000a900473ffffffffffffffffffffffffffffffffffffffff1673ffffffffffffffffffffffffffffffffffffffff1614610509576040517f08c379a00000000000000000000000000000000000000000000000000000000081526004018080602001828103825260128152602001807fe59586e59381e5b7b2e8a2abe8b4ade4b9b0000000000000000000000000000081525060200191505060405180910390fd5b6007826006811061051657fe5b015434101561058d576040517f08c379a00000000000000000000000000000000000000000000000000000000081526004018080602001828103825260128152602001807fe4bb98e6acbee98791e9a29de4b88de8b6b3000000000000000000000000000081525060200191505060405180910390fd5b336001836006811061059b57fe5b0160006101000a81548173ffffffffffffffffffffffffffffffffffffffff021916908373ffffffffffffffffffffffffffffffffffffffff1602179055503373ffffffffffffffffffffffffffffffffffffffff16827fa530f889d7f1bd9a73028e48944ca013ab2c6624a31e3fa26f923f4bb719abd5346040518082815260200191505060405180910390a360019050919050565b6000809054906101000a900473ffffffffffffffffffffffffffffffffffffffff1681565b6007816006811061066457fe5b016000915090505481565b6000600682106106e7576040517f08c379a00000000000000000000000000000000000000000000000000000000081526004018080602001828103825260128152602001807fe59586e59381e7bc96e58fb7e697a0e69588000000000000000000000000000081525060200191505060405180910390fd5b600782600681106106f457fe5b01549050919050565b6001816006811061070a57fe5b016000915054906101000a900473ffffffffffffffffffffffffffffffffffffffff1681565b6107386107b1565b60016006806020026040519081016040528092919082600680156107a7576020028201915b8160009054906101000a900473ffffffffffffffffffffffffffffffffffffffff1673ffffffffffffffffffffffffffffffffffffffff168152602001906001019080831161075d575b5050505050905090565b6040518060c0016040528060069060208202803883398082019150509050509056fea265627a7a723158204feef2f3f050ccf893a8686d295ff399841ae655dd809196bf5b5239e847409164736f6c63430005110032",
  "source": "pragma solidity ^0.5.0;\r\n\r\ncontract Shop {\r\n    address payable public owner;\r\n    address[6] public buyers;\r\n\r\n    // 商品价格（单位：wei），固定 6 个商品\r\n    uint[6] public prices = [\r\n        10000000000000000,  // 0.01 ETH\r\n        5000000000000000,   // 0.005 ETH\r\n        5000000000000000,\r\n        5000000000000000,\r\n        5000000000000000,\r\n        5000000000000000\r\n    ];\r\n\r\n    event ProductPurchased(uint indexed productId, address indexed buyer, uint price);\r\n\r\n    constructor() public {\r\n        owner = msg.sender;\r\n    }\r\n\r\n    // 购买商品\r\n    function buyProduct(uint productId) public payable returns (bool) {\r\n        require(productId < 6, \"商品编号无效\");\r\n        require(buyers[productId] == address(0), \"商品已被购买\");\r\n        require(msg.value >= prices[productId], \"付款金额不足\");\r\n\r\n        buyers[productId] = msg.sender;\r\n        emit ProductPurchased(productId, msg.sender, msg.value);\r\n        return true;\r\n    }\r\n\r\n    // 查看所有购买者地址\r\n    function getBuyers() public view returns (address[6] memory) {\r\n        return buyers;\r\n    }\r\n\r\n    // 合约所有者提取资金\r\n    function withdraw() public {\r\n        require(msg.sender == owner, \"只有管理员可以提现\");\r\n        owner.transfer(address(this).balance);\r\n    }\r\n\r\n    // 查询商品价格\r\n    function getPrice(uint productId) public view returns (uint) {\r\n        require(productId < 6, \"商品编号无效\");\r\n        return prices[productId];\r\n    }\r\n}\r\n",
  "sourcePath": "C:/Users/baisheng/OneDrive/桌面/APS-1050-Project-main/contracts/Shop.sol",
  "compiler": {
    "name": "solc",
    "version": "0.5.17+commit.d19bba13.Emscripten.clang"
  },
  "schemaVersion": "3.0.22",
  "updatedAt": "2025-07-25T22:08:12.225Z",
  "networkType": "ethereum",
  "devdoc": {
    "methods": {}
  },
  "userdoc": {
    "methods": {}
  }
}