{
  "contractName": "Adoption",
  "abi": [
    {
      "inputs": [],
      "payable": false,
      "stateMutability": "nonpayable",
      "type": "constructor"
    },
    {
      "anonymous": false,
      "inputs": [
        {
          "indexed": false,
          "internalType": "uint256",
          "name": "petId",
          "type": "uint256"
        },
        {
          "indexed": false,
          "internalType": "address",
          "name": "adopter",
          "type": "address"
        }
      ],
      "name": "Adopted",
      "type": "event"
    },
    {
      "anonymous": false,
      "inputs": [
        {
          "indexed": false,
          "internalType": "uint256",
          "name": "petId",
          "type": "uint256"
        },
        {
          "indexed": false,
          "internalType": "address",
          "name": "donor",
          "type": "address"
        },
        {
          "indexed": false,
          "internalType": "uint256",
          "name": "amount",
          "type": "uint256"
        }
      ],
      "name": "Donated",
      "type": "event"
    },
    {
      "anonymous": false,
      "inputs": [
        {
          "indexed": false,
          "internalType": "uint256",
          "name": "petId",
          "type": "uint256"
        },
        {
          "indexed": false,
          "internalType": "address",
          "name": "returner",
          "type": "address"
        },
        {
          "indexed": false,
          "internalType": "uint256",
          "name": "amount",
          "type": "uint256"
        }
      ],
      "name": "Returned",
      "type": "event"
    },
    {
      "anonymous": false,
      "inputs": [
        {
          "indexed": false,
          "internalType": "uint256",
          "name": "petId",
          "type": "uint256"
        },
        {
          "indexed": false,
          "internalType": "uint256",
          "name": "newVoteCount",
          "type": "uint256"
        }
      ],
      "name": "Voted",
      "type": "event"
    },
    {
      "constant": true,
      "inputs": [
        {
          "internalType": "uint256",
          "name": "",
          "type": "uint256"
        }
      ],
      "name": "adopters",
      "outputs": [
        {
          "internalType": "address",
          "name": "",
          "type": "address"
        }
      ],
      "payable": false,
      "stateMutability": "view",
      "type": "function"
    },
    {
      "constant": true,
      "inputs": [
        {
          "internalType": "string",
          "name": "",
          "type": "string"
        }
      ],
      "name": "breedAdoptionCount",
      "outputs": [
        {
          "internalType": "uint256",
          "name": "",
          "type": "uint256"
        }
      ],
      "payable": false,
      "stateMutability": "view",
      "type": "function"
    },
    {
      "constant": true,
      "inputs": [
        {
          "internalType": "uint256",
          "name": "",
          "type": "uint256"
        }
      ],
      "name": "donations",
      "outputs": [
        {
          "internalType": "uint256",
          "name": "",
          "type": "uint256"
        }
      ],
      "payable": false,
      "stateMutability": "view",
      "type": "function"
    },
    {
      "constant": true,
      "inputs": [],
      "name": "maxAdoptionCount",
      "outputs": [
        {
          "internalType": "uint256",
          "name": "",
          "type": "uint256"
        }
      ],
      "payable": false,
      "stateMutability": "view",
      "type": "function"
    },
    {
      "constant": true,
      "inputs": [],
      "name": "maxDonation",
      "outputs": [
        {
          "internalType": "uint256",
          "name": "",
          "type": "uint256"
        }
      ],
      "payable": false,
      "stateMutability": "view",
      "type": "function"
    },
    {
      "constant": true,
      "inputs": [],
      "name": "mostAdoptedBreed",
      "outputs": [
        {
          "internalType": "string",
          "name": "",
          "type": "string"
        }
      ],
      "payable": false,
      "stateMutability": "view",
      "type": "function"
    },
    {
      "constant": true,
      "inputs": [],
      "name": "topDonatedPetId",
      "outputs": [
        {
          "internalType": "uint256",
          "name": "",
          "type": "uint256"
        }
      ],
      "payable": false,
      "stateMutability": "view",
      "type": "function"
    },
    {
      "constant": true,
      "inputs": [
        {
          "internalType": "address",
          "name": "",
          "type": "address"
        },
        {
          "internalType": "uint256",
          "name": "",
          "type": "uint256"
        }
      ],
      "name": "userAdoptionHistory",
      "outputs": [
        {
          "internalType": "uint256",
          "name": "",
          "type": "uint256"
        }
      ],
      "payable": false,
      "stateMutability": "view",
      "type": "function"
    },
    {
      "constant": true,
      "inputs": [
        {
          "internalType": "uint256",
          "name": "",
          "type": "uint256"
        }
      ],
      "name": "voteCounts",
      "outputs": [
        {
          "internalType": "uint256",
          "name": "",
          "type": "uint256"
        }
      ],
      "payable": false,
      "stateMutability": "view",
      "type": "function"
    },
    {
      "constant": true,
      "inputs": [],
      "name": "getMostAdoptedBreed",
      "outputs": [
        {
          "internalType": "string",
          "name": "",
          "type": "string"
        },
        {
          "internalType": "uint256",
          "name": "",
          "type": "uint256"
        }
      ],
      "payable": false,
      "stateMutability": "view",
      "type": "function"
    },
    {
      "constant": false,
      "inputs": [
        {
          "internalType": "uint256",
          "name": "petId",
          "type": "uint256"
        }
      ],
      "name": "adopt",
      "outputs": [
        {
          "internalType": "uint256",
          "name": "",
          "type": "uint256"
        }
      ],
      "payable": false,
      "stateMutability": "nonpayable",
      "type": "function"
    },
    {
      "constant": false,
      "inputs": [
        {
          "internalType": "uint256",
          "name": "petId",
          "type": "uint256"
        }
      ],
      "name": "returnPet",
      "outputs": [
        {
          "internalType": "bool",
          "name": "",
          "type": "bool"
        }
      ],
      "payable": true,
      "stateMutability": "payable",
      "type": "function"
    },
    {
      "constant": false,
      "inputs": [
        {
          "internalType": "uint256",
          "name": "petId",
          "type": "uint256"
        }
      ],
      "name": "votePet",
      "outputs": [],
      "payable": false,
      "stateMutability": "nonpayable",
      "type": "function"
    },
    {
      "constant": false,
      "inputs": [
        {
          "internalType": "uint256",
          "name": "petId",
          "type": "uint256"
        }
      ],
      "name": "donateToPet",
      "outputs": [],
      "payable": true,
      "stateMutability": "payable",
      "type": "function"
    },
    {
      "constant": false,
      "inputs": [],
      "name": "withdraw",
      "outputs": [],
      "payable": false,
      "stateMutability": "nonpayable",
      "type": "function"
    },
    {
      "constant": true,
      "inputs": [],
      "name": "getAdopters",
      "outputs": [
        {
          "internalType": "address[16]",
          "name": "",
          "type": "address[16]"
        }
      ],
      "payable": false,
      "stateMutability": "view",
      "type": "function"
    },
    {
      "constant": false,
      "inputs": [
        {
          "internalType": "uint256",
          "name": "petId",
          "type": "uint256"
        },
        {
          "internalType": "string",
          "name": "breed",
          "type": "string"
        }
      ],
      "name": "adoptWithTracking",
      "outputs": [
        {
          "internalType": "uint256",
          "name": "",
          "type": "uint256"
        }
      ],
      "payable": false,
      "stateMutability": "nonpayable",
      "type": "function"
    },
    {
      "constant": true,
      "inputs": [
        {
          "internalType": "address",
          "name": "user",
          "type": "address"
        }
      ],
      "name": "getUserAdoptionHistory",
      "outputs": [
        {
          "internalType": "uint256[]",
          "name": "",
          "type": "uint256[]"
        }
      ],
      "payable": false,
      "stateMutability": "view",
      "type": "function"
    },
    {
      "constant": true,
      "inputs": [],
      "name": "getTopDonatedPet",
      "outputs": [
        {
          "internalType": "uint256",
          "name": "petId",
          "type": "uint256"
        },
        {
          "internalType": "uint256",
          "name": "amount",
          "type": "uint256"
        }
      ],
      "payable": false,
      "stateMutability": "view",
      "type": "function"
    }
  ],
  "bytecode": "0x60806040526000805534801561001457600080fd5b5033601760006101000a81548173ffffffffffffffffffffffffffffffffffffffff021916908373ffffffffffffffffffffffffffffffffffffffff1602179055506118cd806100656000396000f3fe6080604052600436106101145760003560e01c80636e8856f7116100a05780639441f1f6116100645780639441f1f614610655578063a8681fd9146106e5578063bdb92e8e14610710578063f8626af814610756578063fcdcc819146107a557610114565b80636e8856f7146104d7578063736da45c146105095780637fe536f814610544578063826d6c51146105db5780638588b2c51461060657610114565b80633de4eb17116100e75780633de4eb17146103415780633ede74271461039457806343ae80d3146103bf57806344b123ff1461043a5780636675835f1461046857610114565b806305651ab61461011957806308a9127c146101f55780633c3a220d146102db5780633ccfd60b1461032a575b600080fd5b34801561012557600080fd5b506101df6004803603602081101561013c57600080fd5b810190808035906020019064010000000081111561015957600080fd5b82018360208201111561016b57600080fd5b8035906020019184600183028401116401000000008311171561018d57600080fd5b91908080601f016020809104026020016040519081016040528093929190818152602001838380828437600081840152601f19601f82011690508083019250505050505050919291929050505061084b565b6040518082815260200191505060405180910390f35b34801561020157600080fd5b506102c56004803603604081101561021857600080fd5b81019080803590602001909291908035906020019064010000000081111561023f57600080fd5b82018360208201111561025157600080fd5b8035906020019184600183028401116401000000008311171561027357600080fd5b91908080601f016020809104026020016040519081016040528093929190818152602001838380828437600081840152601f19601f820116905080830192505050505050509192919290505050610879565b6040518082815260200191505060405180910390f35b3480156102e757600080fd5b50610314600480360360208110156102fe57600080fd5b8101908080359060200190929190505050610c81565b6040518082815260200191505060405180910390f35b34801561033657600080fd5b5061033f610c99565b005b34801561034d57600080fd5b50610356610dc7565b6040518082601060200280838360005b83811015610381578082015181840152602081019050610366565b5050505090500191505060405180910390f35b3480156103a057600080fd5b506103a9610e48565b6040518082815260200191505060405180910390f35b3480156103cb57600080fd5b506103f8600480360360208110156103e257600080fd5b8101908080359060200190929190505050610e4e565b604051808273ffffffffffffffffffffffffffffffffffffffff1673ffffffffffffffffffffffffffffffffffffffff16815260200191505060405180910390f35b6104666004803603602081101561045057600080fd5b8101908080359060200190929190505050610e81565b005b34801561047457600080fd5b506104c16004803603604081101561048b57600080fd5b81019080803573ffffffffffffffffffffffffffffffffffffffff16906020019092919080359060200190929190505050611015565b6040518082815260200191505060405180910390f35b3480156104e357600080fd5b506104ec611043565b604051808381526020018281526020019250505060405180910390f35b34801561051557600080fd5b506105426004803603602081101561052c57600080fd5b8101908080359060200190929190505050611054565b005b34801561055057600080fd5b50610559611143565b6040518080602001838152602001828103825284818151815260200191508051906020019080838360005b8381101561059f578082015181840152602081019050610584565b50505050905090810190601f1680156105cc5780820380516001836020036101000a031916815260200191505b50935050505060405180910390f35b3480156105e757600080fd5b506105f0611260565b6040518082815260200191505060405180910390f35b34801561061257600080fd5b5061063f6004803603602081101561062957600080fd5b8101908080359060200190929190505050611266565b6040518082815260200191505060405180910390f35b34801561066157600080fd5b5061066a61139f565b6040518080602001828103825283818151815260200191508051906020019080838360005b838110156106aa57808201518184015260208101905061068f565b50505050905090810190601f1680156106d75780820380516001836020036101000a031916815260200191505b509250505060405180910390f35b3480156106f157600080fd5b506106fa61143d565b6040518082815260200191505060405180910390f35b61073c6004803603602081101561072657600080fd5b8101908080359060200190929190505050611443565b604051808215151515815260200191505060405180910390f35b34801561076257600080fd5b5061078f6004803603602081101561077957600080fd5b81019080803590602001909291905050506116b5565b6040518082815260200191505060405180910390f35b3480156107b157600080fd5b506107f4600480360360208110156107c857600080fd5b81019080803573ffffffffffffffffffffffffffffffffffffffff1690602001909291905050506116cd565b6040518080602001828103825283818151815260200191508051906020019060200280838360005b8381101561083757808201518184015260208101905061081c565b505050509050019250505060405180910390f35b6015818051602081018201805184825260208301602085012081835280955050505050506000915090505481565b6000600f8311156108f2576040517f08c379a000000000000000000000000000000000000000000000000000000000815260040180806020018281038252600d8152602001807f496e76616c69642070657449640000000000000000000000000000000000000081525060200191505060405180910390fd5b600073ffffffffffffffffffffffffffffffffffffffff166001846010811061091757fe5b0160009054906101000a900473ffffffffffffffffffffffffffffffffffffffff1673ffffffffffffffffffffffffffffffffffffffff16146109c2576040517f08c379a00000000000000000000000000000000000000000000000000000000081526004018080602001828103825260138152602001807f50657420616c72656164792061646f707465640000000000000000000000000081525060200191505060405180910390fd5b33600184601081106109d057fe5b0160006101000a81548173ffffffffffffffffffffffffffffffffffffffff021916908373ffffffffffffffffffffffffffffffffffffffff1602179055507f01c07ea0ae04d5e8aae2bb4f2d6bf449288c76006383b9ffaed4d85ca8d9a9518333604051808381526020018273ffffffffffffffffffffffffffffffffffffffff1673ffffffffffffffffffffffffffffffffffffffff1681526020019250505060405180910390a1601860003373ffffffffffffffffffffffffffffffffffffffff1673ffffffffffffffffffffffffffffffffffffffff1681526020019081526020016000208390806001815401808255809150509060018203906000526020600020016000909192909190915055506015826040518082805190602001908083835b60208310610b195780518252602082019150602081019050602083039250610af6565b6001836020036101000a038019825116818451168082178552505050505050905001915050908152602001604051809103902060008154809291906001019190505550600060168054600181600116156101000203166002900490501480610c5b5750601560166040518082805460018160011615610100020316600290048015610bdb5780601f10610bb9576101008083540402835291820191610bdb565b820191906000526020600020905b815481529060010190602001808311610bc7575b50509150509081526020016040518091039020546015836040518082805190602001908083835b60208310610c255780518252602082019150602081019050602083039250610c02565b6001836020036101000a038019825116818451168082178552505050505050905001915050908152602001604051809103902054115b15610c78578160169080519060200190610c769291906117a6565b505b82905092915050565b60136020528060005260406000206000915090505481565b601760009054906101000a900473ffffffffffffffffffffffffffffffffffffffff1673ffffffffffffffffffffffffffffffffffffffff163373ffffffffffffffffffffffffffffffffffffffff1614610d5c576040517f08c379a00000000000000000000000000000000000000000000000000000000081526004018080602001828103825260178152602001807f4f6e6c79206f776e65722063616e20776974686472617700000000000000000081525060200191505060405180910390fd5b601760009054906101000a900473ffffffffffffffffffffffffffffffffffffffff1673ffffffffffffffffffffffffffffffffffffffff166108fc479081150290604051600060405180830381858888f19350505050158015610dc4573d6000803e3d6000fd5b50565b610dcf611826565b6001601080602002604051908101604052809291908260108015610e3e576020028201915b8160009054906101000a900473ffffffffffffffffffffffffffffffffffffffff1673ffffffffffffffffffffffffffffffffffffffff1681526020019060010190808311610df4575b5050505050905090565b60005481565b60018160108110610e5b57fe5b016000915054906101000a900473ffffffffffffffffffffffffffffffffffffffff1681565b600f811115610ef8576040517f08c379a000000000000000000000000000000000000000000000000000000000815260040180806020018281038252600d8152602001807f496e76616c69642070657449640000000000000000000000000000000000000081525060200191505060405180910390fd5b662386f26fc10000341015610f75576040517f08c379a000000000000000000000000000000000000000000000000000000000815260040180806020018281038252601c8152602001807f4d696e696d756d20646f6e6174696f6e20697320302e3031204554480000000081525060200191505060405180910390fd5b3460146000838152602001908152602001600020600082825401925050819055507f1b606d34afacd55873aba0fd274841a10c63e18455f2dffebad2fc60a36b2c83813334604051808481526020018373ffffffffffffffffffffffffffffffffffffffff1673ffffffffffffffffffffffffffffffffffffffff168152602001828152602001935050505060405180910390a161101281611764565b50565b6018602052816000526040600020818154811061102e57fe5b90600052602060002001600091509150505481565b600080601154601254915091509091565b600f8111156110cb576040517f08c379a000000000000000000000000000000000000000000000000000000000815260040180806020018281038252600d8152602001807f496e76616c69642070657449640000000000000000000000000000000000000081525060200191505060405180910390fd5b60136000828152602001908152602001600020600081548092919060010191905055507f84a5508ca0d85b42a876e75a9126f3ae7b43617ce60b170bf8805d34630bc654816013600084815260200190815260200160002054604051808381526020018281526020019250505060405180910390a150565b6060600060166015601660405180828054600181600116156101000203166002900480156111a85780601f106111865761010080835404028352918201916111a8565b820191906000526020600020905b815481529060010190602001808311611194575b5050915050908152602001604051809103902054818054600181600116156101000203166002900480601f0160208091040260200160405190810160405280929190818152602001828054600181600116156101000203166002900480156112515780601f1061122657610100808354040283529160200191611251565b820191906000526020600020905b81548152906001019060200180831161123457829003601f168201915b50505050509150915091509091565b60115481565b6000600f8211156112df576040517f08c379a000000000000000000000000000000000000000000000000000000000815260040180806020018281038252600d8152602001807f496e76616c69642070657449640000000000000000000000000000000000000081525060200191505060405180910390fd5b33600183601081106112ed57fe5b0160006101000a81548173ffffffffffffffffffffffffffffffffffffffff021916908373ffffffffffffffffffffffffffffffffffffffff1602179055507f01c07ea0ae04d5e8aae2bb4f2d6bf449288c76006383b9ffaed4d85ca8d9a9518233604051808381526020018273ffffffffffffffffffffffffffffffffffffffff1673ffffffffffffffffffffffffffffffffffffffff1681526020019250505060405180910390a1819050919050565b60168054600181600116156101000203166002900480601f0160208091040260200160405190810160405280929190818152602001828054600181600116156101000203166002900480156114355780601f1061140a57610100808354040283529160200191611435565b820191906000526020600020905b81548152906001019060200180831161141857829003601f168201915b505050505081565b60125481565b6000600f8211156114bc576040517f08c379a000000000000000000000000000000000000000000000000000000000815260040180806020018281038252600d8152602001807f496e76616c69642070657449640000000000000000000000000000000000000081525060200191505060405180910390fd5b3373ffffffffffffffffffffffffffffffffffffffff16600183601081106114e057fe5b0160009054906101000a900473ffffffffffffffffffffffffffffffffffffffff1673ffffffffffffffffffffffffffffffffffffffff161461158b576040517f08c379a00000000000000000000000000000000000000000000000000000000081526004018080602001828103825260198152602001807f596f75206469646e27742061646f70742074686973207065740000000000000081525060200191505060405180910390fd5b662386f26fc100003410156115eb576040517f08c379a000000000000000000000000000000000000000000000000000000000815260040180806020018281038252602a81526020018061186f602a913960400191505060405180910390fd5b6000600183601081106115fa57fe5b0160006101000a81548173ffffffffffffffffffffffffffffffffffffffff021916908373ffffffffffffffffffffffffffffffffffffffff1602179055507f3287d0903fab6157e0587a1e22a9523e456d718705a1ab5b14e2f3c50db07c1f823334604051808481526020018373ffffffffffffffffffffffffffffffffffffffff1673ffffffffffffffffffffffffffffffffffffffff168152602001828152602001935050505060405180910390a160019050919050565b60146020528060005260406000206000915090505481565b6060601860008373ffffffffffffffffffffffffffffffffffffffff1673ffffffffffffffffffffffffffffffffffffffff16815260200190815260200160002080548060200260200160405190810160405280929190818152602001828054801561175857602002820191906000526020600020905b815481526020019060010190808311611744575b50505050509050919050565b601254601460008381526020019081526020016000205411156117a3576014600082815260200190815260200160002054601281905550806011819055505b50565b828054600181600116156101000203166002900490600052602060002090601f016020900481019282601f106117e757805160ff1916838001178555611815565b82800160010185558215611815579182015b828111156118145782518255916020019190600101906117f9565b5b5090506118229190611849565b5090565b604051806102000160405280601090602082028038833980820191505090505090565b61186b91905b8082111561186757600081600090555060010161184f565b5090565b9056fe596f75206d75737420706179206174206c6561737420302e303120657468657220746f2072657475726ea265627a7a72315820570ba51d37cb2a1497e643d85f11591f7994e69314db737424e62639ddcef63264736f6c63430005110032",
  "source": "pragma solidity ^0.5.0;\r\n\r\ncontract Adoption {\r\n    uint256 public maxAdoptionCount = 0;\r\n    address[16] public adopters;\r\n    uint public topDonatedPetId;\r\n    uint public maxDonation;\r\n\r\n\r\n    event Adopted(uint petId, address adopter);\r\n    event Returned(uint petId, address returner, uint amount);\r\n    event Voted(uint petId, uint newVoteCount);\r\n    event Donated(uint petId, address donor, uint amount);\r\n\r\n    // Store vote counts\r\n    mapping(uint => uint) public voteCounts;\r\n\r\n    // Store donations value\r\n    mapping(uint => uint) public donations;\r\n\r\n    mapping(string => uint) public breedAdoptionCount;\r\n    string public mostAdoptedBreed;\r\n\r\n    function getMostAdoptedBreed() public view returns (string memory, uint) {\r\n    return (mostAdoptedBreed, breedAdoptionCount[mostAdoptedBreed]);\r\n    }\r\n\r\n\r\n    // Adopting a pet\r\n    function adopt(uint petId) public returns (uint) {\r\n        require(petId <= 15, \"Invalid petId\");\r\n        adopters[petId] = msg.sender;\r\n        emit Adopted(petId, msg.sender);\r\n        return petId;\r\n    }\r\n\r\n    // Returning a pet (with fee)\r\n    function returnPet(uint petId) public payable returns (bool) {\r\n        require(petId <= 15, \"Invalid petId\");\r\n        require(adopters[petId] == msg.sender, \"You didn't adopt this pet\");\r\n        require(msg.value >= 0.01 ether, \"You must pay at least 0.01 ether to return\");\r\n\r\n        adopters[petId] = address(0);\r\n        emit Returned(petId, msg.sender, msg.value);\r\n        return true;\r\n    }\r\n\r\n    // Voting for a pet\r\n    function votePet(uint petId) public {\r\n            require(petId <= 15, \"Invalid petId\");\r\n            voteCounts[petId]++;\r\n            emit Voted(petId, voteCounts[petId]);\r\n        }\r\n\r\n    // Donate for a particular pet\r\n    function donateToPet(uint petId) public payable {\r\n        require(petId <= 15, \"Invalid petId\");\r\n        require(msg.value >= 0.01 ether, \"Minimum donation is 0.01 ETH\");\r\n\r\n        donations[petId] += msg.value;\r\n        emit Donated(petId, msg.sender, msg.value);\r\n        updateTopDonatedPet(petId);\r\n    }\r\n\r\n\r\n    // Withdraw funds collected (only contract owner)\r\n    address payable owner;\r\n\r\n    constructor() public {\r\n        owner = msg.sender;\r\n    }\r\n\r\n    function withdraw() public {\r\n        require(msg.sender == owner, \"Only owner can withdraw\");\r\n        owner.transfer(address(this).balance);\r\n    }\r\n\r\n    // Retrieving the adopters\r\n    function getAdopters() public view returns (address[16] memory) {\r\n        return adopters;\r\n    }\r\n     \r\n     \r\n    // Add-on Feature 10: User adoption history \r\n    mapping(address => uint[]) public userAdoptionHistory; \r\n\r\n    // Modified adopt wrapper to be called by frontend instead of original adopt()\r\n   function adoptWithTracking(uint petId, string memory breed) public returns (uint) {\r\n    require(petId <= 15, \"Invalid petId\");\r\n    require(adopters[petId] == address(0), \"Pet already adopted\");\r\n\r\n    adopters[petId] = msg.sender;\r\n    emit Adopted(petId, msg.sender);\r\n\r\n    userAdoptionHistory[msg.sender].push(petId);\r\n\r\n    breedAdoptionCount[breed]++;\r\n    if (bytes(mostAdoptedBreed).length == 0 || breedAdoptionCount[breed] > breedAdoptionCount[mostAdoptedBreed]) {\r\n        mostAdoptedBreed = breed;\r\n    }\r\n\r\n    return petId;\r\n}\r\n\r\n\r\n    // Optional: get full adoption history of a user\r\n    function getUserAdoptionHistory(address user) public view returns (uint[] memory) {\r\n        return userAdoptionHistory[user];\r\n    }\r\n\r\n    function updateTopDonatedPet(uint petId) internal {\r\n    if (donations[petId] > maxDonation) {\r\n        maxDonation = donations[petId];\r\n        topDonatedPetId = petId;\r\n        }\r\n    }\r\n\r\nfunction getTopDonatedPet() public view returns (uint petId, uint amount) {\r\n    return (topDonatedPetId, maxDonation);\r\n    }\r\n\r\n\r\n}\r\n",
  "sourcePath": "C:/Users/Bruce Lan/Desktop/UOT/Github/APS-1050-Project/contracts/Adoption.sol",
  "compiler": {
    "name": "solc",
    "version": "0.5.17+commit.d19bba13.Emscripten.clang"
  },
  "schemaVersion": "3.0.22",
  "updatedAt": "2025-07-30T15:08:22.025Z",
  "networkType": "ethereum",
  "devdoc": {
    "methods": {}
  },
  "userdoc": {
    "methods": {}
  }
}