{
  "contractName": "Adoption",
  "abi": [
    {
      "inputs": [],
      "payable": false,
      "stateMutability": "nonpayable",
      "type": "constructor"
    },
    {
      "anonymous": false,
      "inputs": [
        {
          "indexed": false,
          "internalType": "uint256",
          "name": "petId",
          "type": "uint256"
        },
        {
          "indexed": false,
          "internalType": "address",
          "name": "adopter",
          "type": "address"
        }
      ],
      "name": "Adopted",
      "type": "event"
    },
    {
      "anonymous": false,
      "inputs": [
        {
          "indexed": false,
          "internalType": "uint256",
          "name": "petId",
          "type": "uint256"
        },
        {
          "indexed": false,
          "internalType": "address",
          "name": "returner",
          "type": "address"
        },
        {
          "indexed": false,
          "internalType": "uint256",
          "name": "amount",
          "type": "uint256"
        }
      ],
      "name": "Returned",
      "type": "event"
    },
    {
      "constant": true,
      "inputs": [
        {
          "internalType": "uint256",
          "name": "",
          "type": "uint256"
        }
      ],
      "name": "adopters",
      "outputs": [
        {
          "internalType": "address",
          "name": "",
          "type": "address"
        }
      ],
      "payable": false,
      "stateMutability": "view",
      "type": "function"
    },
    {
      "constant": false,
      "inputs": [
        {
          "internalType": "uint256",
          "name": "petId",
          "type": "uint256"
        }
      ],
      "name": "adopt",
      "outputs": [
        {
          "internalType": "uint256",
          "name": "",
          "type": "uint256"
        }
      ],
      "payable": false,
      "stateMutability": "nonpayable",
      "type": "function"
    },
    {
      "constant": false,
      "inputs": [
        {
          "internalType": "uint256",
          "name": "petId",
          "type": "uint256"
        }
      ],
      "name": "returnPet",
      "outputs": [
        {
          "internalType": "bool",
          "name": "",
          "type": "bool"
        }
      ],
      "payable": true,
      "stateMutability": "payable",
      "type": "function"
    },
    {
      "constant": false,
      "inputs": [],
      "name": "withdraw",
      "outputs": [],
      "payable": false,
      "stateMutability": "nonpayable",
      "type": "function"
    },
    {
      "constant": true,
      "inputs": [],
      "name": "getAdopters",
      "outputs": [
        {
          "internalType": "address[16]",
          "name": "",
          "type": "address[16]"
        }
      ],
      "payable": false,
      "stateMutability": "view",
      "type": "function"
    }
  ],
  "bytecode": "0x608060405234801561001057600080fd5b5033601060006101000a81548173ffffffffffffffffffffffffffffffffffffffff021916908373ffffffffffffffffffffffffffffffffffffffff1602179055506107d7806100616000396000f3fe60806040526004361061004a5760003560e01c80633ccfd60b1461004f5780633de4eb171461006657806343ae80d3146100b95780638588b2c514610134578063bdb92e8e14610183575b600080fd5b34801561005b57600080fd5b506100646101c9565b005b34801561007257600080fd5b5061007b6102f7565b6040518082601060200280838360005b838110156100a657808201518184015260208101905061008b565b5050505090500191505060405180910390f35b3480156100c557600080fd5b506100f2600480360360208110156100dc57600080fd5b8101908080359060200190929190505050610378565b604051808273ffffffffffffffffffffffffffffffffffffffff1673ffffffffffffffffffffffffffffffffffffffff16815260200191505060405180910390f35b34801561014057600080fd5b5061016d6004803603602081101561015757600080fd5b81019080803590602001909291905050506103ab565b6040518082815260200191505060405180910390f35b6101af6004803603602081101561019957600080fd5b81019080803590602001909291905050506104e4565b604051808215151515815260200191505060405180910390f35b601060009054906101000a900473ffffffffffffffffffffffffffffffffffffffff1673ffffffffffffffffffffffffffffffffffffffff163373ffffffffffffffffffffffffffffffffffffffff161461028c576040517f08c379a00000000000000000000000000000000000000000000000000000000081526004018080602001828103825260178152602001807f4f6e6c79206f776e65722063616e20776974686472617700000000000000000081525060200191505060405180910390fd5b601060009054906101000a900473ffffffffffffffffffffffffffffffffffffffff1673ffffffffffffffffffffffffffffffffffffffff166108fc479081150290604051600060405180830381858888f193505050501580156102f4573d6000803e3d6000fd5b50565b6102ff610755565b600060108060200260405190810160405280929190826010801561036e576020028201915b8160009054906101000a900473ffffffffffffffffffffffffffffffffffffffff1673ffffffffffffffffffffffffffffffffffffffff1681526020019060010190808311610324575b5050505050905090565b6000816010811061038557fe5b016000915054906101000a900473ffffffffffffffffffffffffffffffffffffffff1681565b6000600f821115610424576040517f08c379a000000000000000000000000000000000000000000000000000000000815260040180806020018281038252600d8152602001807f496e76616c69642070657449640000000000000000000000000000000000000081525060200191505060405180910390fd5b336000836010811061043257fe5b0160006101000a81548173ffffffffffffffffffffffffffffffffffffffff021916908373ffffffffffffffffffffffffffffffffffffffff1602179055507f01c07ea0ae04d5e8aae2bb4f2d6bf449288c76006383b9ffaed4d85ca8d9a9518233604051808381526020018273ffffffffffffffffffffffffffffffffffffffff1673ffffffffffffffffffffffffffffffffffffffff1681526020019250505060405180910390a1819050919050565b6000600f82111561055d576040517f08c379a000000000000000000000000000000000000000000000000000000000815260040180806020018281038252600d8152602001807f496e76616c69642070657449640000000000000000000000000000000000000081525060200191505060405180910390fd5b3373ffffffffffffffffffffffffffffffffffffffff166000836010811061058157fe5b0160009054906101000a900473ffffffffffffffffffffffffffffffffffffffff1673ffffffffffffffffffffffffffffffffffffffff161461062c576040517f08c379a00000000000000000000000000000000000000000000000000000000081526004018080602001828103825260198152602001807f596f75206469646e27742061646f70742074686973207065740000000000000081525060200191505060405180910390fd5b662386f26fc1000034101561068c576040517f08c379a000000000000000000000000000000000000000000000000000000000815260040180806020018281038252602a815260200180610779602a913960400191505060405180910390fd5b600080836010811061069a57fe5b0160006101000a81548173ffffffffffffffffffffffffffffffffffffffff021916908373ffffffffffffffffffffffffffffffffffffffff1602179055507f3287d0903fab6157e0587a1e22a9523e456d718705a1ab5b14e2f3c50db07c1f823334604051808481526020018373ffffffffffffffffffffffffffffffffffffffff1673ffffffffffffffffffffffffffffffffffffffff168152602001828152602001935050505060405180910390a160019050919050565b60405180610200016040528060109060208202803883398082019150509050509056fe596f75206d75737420706179206174206c6561737420302e303120657468657220746f2072657475726ea265627a7a723158207ad4b8922953194e556d06b7b310a30d95f046b2d05fa952600f6ad8047b979f64736f6c63430005110032",
  "source": "pragma solidity ^0.5.0;\n\ncontract Adoption {\n    address[16] public adopters;\n\n    event Adopted(uint petId, address adopter);\n    event Returned(uint petId, address returner, uint amount);\n\n    // Adopting a pet\n    function adopt(uint petId) public returns (uint) {\n        require(petId <= 15, \"Invalid petId\");\n        adopters[petId] = msg.sender;\n        emit Adopted(petId, msg.sender);\n        return petId;\n    }\n\n    // Returning a pet (with fee)\n    function returnPet(uint petId) public payable returns (bool) {\n        require(petId <= 15, \"Invalid petId\");\n        require(adopters[petId] == msg.sender, \"You didn't adopt this pet\");\n        require(msg.value >= 0.01 ether, \"You must pay at least 0.01 ether to return\");\n\n        adopters[petId] = address(0);\n        emit Returned(petId, msg.sender, msg.value);\n        return true;\n    }\n\n    // Withdraw funds collected (only contract owner)\n    address payable owner;\n\n    constructor() public {\n        owner = msg.sender;\n    }\n\n    function withdraw() public {\n        require(msg.sender == owner, \"Only owner can withdraw\");\n        owner.transfer(address(this).balance);\n    }\n\n    // Retrieving the adopters\n    function getAdopters() public view returns (address[16] memory) {\n        return adopters;\n    }\n}\n",
  "sourcePath": "C:/Users/baisheng/OneDrive/桌面/APS-1050-Project-main/contracts/Adoption.sol",
  "compiler": {
    "name": "solc",
    "version": "0.5.17+commit.d19bba13.Emscripten.clang"
  },
  "schemaVersion": "3.0.22",
  "updatedAt": "2025-07-26T05:33:06.967Z",
  "networkType": "ethereum",
  "devdoc": {
    "methods": {}
  },
  "userdoc": {
    "methods": {}
  }
}