{
  "contractName": "Adoption",
  "abi": [
    {
      "inputs": [],
      "payable": false,
      "stateMutability": "nonpayable",
      "type": "constructor"
    },
    {
      "anonymous": false,
      "inputs": [
        {
          "indexed": false,
          "internalType": "uint256",
          "name": "petId",
          "type": "uint256"
        },
        {
          "indexed": false,
          "internalType": "address",
          "name": "adopter",
          "type": "address"
        }
      ],
      "name": "Adopted",
      "type": "event"
    },
    {
      "anonymous": false,
      "inputs": [
        {
          "indexed": false,
          "internalType": "uint256",
          "name": "petId",
          "type": "uint256"
        },
        {
          "indexed": false,
          "internalType": "address",
          "name": "donor",
          "type": "address"
        },
        {
          "indexed": false,
          "internalType": "uint256",
          "name": "amount",
          "type": "uint256"
        }
      ],
      "name": "Donated",
      "type": "event"
    },
    {
      "anonymous": false,
      "inputs": [
        {
          "indexed": false,
          "internalType": "uint256",
          "name": "petId",
          "type": "uint256"
        },
        {
          "indexed": false,
          "internalType": "address",
          "name": "returner",
          "type": "address"
        },
        {
          "indexed": false,
          "internalType": "uint256",
          "name": "amount",
          "type": "uint256"
        }
      ],
      "name": "Returned",
      "type": "event"
    },
    {
      "anonymous": false,
      "inputs": [
        {
          "indexed": false,
          "internalType": "uint256",
          "name": "petId",
          "type": "uint256"
        },
        {
          "indexed": false,
          "internalType": "uint256",
          "name": "newVoteCount",
          "type": "uint256"
        }
      ],
      "name": "Voted",
      "type": "event"
    },
    {
      "constant": true,
      "inputs": [
        {
          "internalType": "uint256",
          "name": "",
          "type": "uint256"
        }
      ],
      "name": "adopters",
      "outputs": [
        {
          "internalType": "address",
          "name": "",
          "type": "address"
        }
      ],
      "payable": false,
      "stateMutability": "view",
      "type": "function"
    },
    {
      "constant": true,
      "inputs": [
        {
          "internalType": "uint256",
          "name": "",
          "type": "uint256"
        }
      ],
      "name": "donations",
      "outputs": [
        {
          "internalType": "uint256",
          "name": "",
          "type": "uint256"
        }
      ],
      "payable": false,
      "stateMutability": "view",
      "type": "function"
    },
    {
      "constant": true,
      "inputs": [],
      "name": "maxAdoptionCount",
      "outputs": [
        {
          "internalType": "uint256",
          "name": "",
          "type": "uint256"
        }
      ],
      "payable": false,
      "stateMutability": "view",
      "type": "function"
    },
    {
      "constant": true,
      "inputs": [],
      "name": "maxDonation",
      "outputs": [
        {
          "internalType": "uint256",
          "name": "",
          "type": "uint256"
        }
      ],
      "payable": false,
      "stateMutability": "view",
      "type": "function"
    },
    {
      "constant": true,
      "inputs": [],
      "name": "topDonatedPetId",
      "outputs": [
        {
          "internalType": "uint256",
          "name": "",
          "type": "uint256"
        }
      ],
      "payable": false,
      "stateMutability": "view",
      "type": "function"
    },
    {
      "constant": true,
      "inputs": [
        {
          "internalType": "address",
          "name": "",
          "type": "address"
        },
        {
          "internalType": "uint256",
          "name": "",
          "type": "uint256"
        }
      ],
      "name": "userAdoptionHistory",
      "outputs": [
        {
          "internalType": "uint256",
          "name": "",
          "type": "uint256"
        }
      ],
      "payable": false,
      "stateMutability": "view",
      "type": "function"
    },
    {
      "constant": true,
      "inputs": [
        {
          "internalType": "uint256",
          "name": "",
          "type": "uint256"
        }
      ],
      "name": "voteCounts",
      "outputs": [
        {
          "internalType": "uint256",
          "name": "",
          "type": "uint256"
        }
      ],
      "payable": false,
      "stateMutability": "view",
      "type": "function"
    },
    {
      "constant": false,
      "inputs": [
        {
          "internalType": "uint256",
          "name": "petId",
          "type": "uint256"
        }
      ],
      "name": "adopt",
      "outputs": [
        {
          "internalType": "uint256",
          "name": "",
          "type": "uint256"
        }
      ],
      "payable": false,
      "stateMutability": "nonpayable",
      "type": "function"
    },
    {
      "constant": false,
      "inputs": [
        {
          "internalType": "uint256",
          "name": "petId",
          "type": "uint256"
        }
      ],
      "name": "returnPet",
      "outputs": [
        {
          "internalType": "bool",
          "name": "",
          "type": "bool"
        }
      ],
      "payable": true,
      "stateMutability": "payable",
      "type": "function"
    },
    {
      "constant": false,
      "inputs": [
        {
          "internalType": "uint256",
          "name": "petId",
          "type": "uint256"
        }
      ],
      "name": "votePet",
      "outputs": [],
      "payable": false,
      "stateMutability": "nonpayable",
      "type": "function"
    },
    {
      "constant": false,
      "inputs": [
        {
          "internalType": "uint256",
          "name": "petId",
          "type": "uint256"
        }
      ],
      "name": "donateToPet",
      "outputs": [],
      "payable": true,
      "stateMutability": "payable",
      "type": "function"
    },
    {
      "constant": false,
      "inputs": [],
      "name": "withdraw",
      "outputs": [],
      "payable": false,
      "stateMutability": "nonpayable",
      "type": "function"
    },
    {
      "constant": true,
      "inputs": [],
      "name": "getAdopters",
      "outputs": [
        {
          "internalType": "address[16]",
          "name": "",
          "type": "address[16]"
        }
      ],
      "payable": false,
      "stateMutability": "view",
      "type": "function"
    },
    {
      "constant": false,
      "inputs": [
        {
          "internalType": "uint256",
          "name": "petId",
          "type": "uint256"
        }
      ],
      "name": "adoptWithTracking",
      "outputs": [
        {
          "internalType": "uint256",
          "name": "",
          "type": "uint256"
        }
      ],
      "payable": false,
      "stateMutability": "nonpayable",
      "type": "function"
    },
    {
      "constant": true,
      "inputs": [
        {
          "internalType": "address",
          "name": "user",
          "type": "address"
        }
      ],
      "name": "getUserAdoptionHistory",
      "outputs": [
        {
          "internalType": "uint256[]",
          "name": "",
          "type": "uint256[]"
        }
      ],
      "payable": false,
      "stateMutability": "view",
      "type": "function"
    },
    {
      "constant": true,
      "inputs": [],
      "name": "getTopDonatedPet",
      "outputs": [
        {
          "internalType": "uint256",
          "name": "petId",
          "type": "uint256"
        },
        {
          "internalType": "uint256",
          "name": "amount",
          "type": "uint256"
        }
      ],
      "payable": false,
      "stateMutability": "view",
      "type": "function"
    }
  ],
  "bytecode": "0x60806040526000805534801561001457600080fd5b5033601560006101000a81548173ffffffffffffffffffffffffffffffffffffffff021916908373ffffffffffffffffffffffffffffffffffffffff1602179055506111ee806100656000396000f3fe6080604052600436106100f35760003560e01c8063736da45c1161008a578063bac5976711610059578063bac5976714610406578063bdb92e8e14610455578063f8626af81461049b578063fcdcc819146104ea576100f3565b8063736da45c14610326578063826d6c51146103615780638588b2c51461038c578063a8681fd9146103db576100f3565b806343ae80d3116100c657806343ae80d3146101dc57806344b123ff146102575780636675835f146102855780636e8856f7146102f4576100f3565b80633c3a220d146100f85780633ccfd60b146101475780633de4eb171461015e5780633ede7427146101b1575b600080fd5b34801561010457600080fd5b506101316004803603602081101561011b57600080fd5b8101908080359060200190929190505050610590565b6040518082815260200191505060405180910390f35b34801561015357600080fd5b5061015c6105a8565b005b34801561016a57600080fd5b506101736106d6565b6040518082601060200280838360005b8381101561019e578082015181840152602081019050610183565b5050505090500191505060405180910390f35b3480156101bd57600080fd5b506101c6610757565b6040518082815260200191505060405180910390f35b3480156101e857600080fd5b50610215600480360360208110156101ff57600080fd5b810190808035906020019092919050505061075d565b604051808273ffffffffffffffffffffffffffffffffffffffff1673ffffffffffffffffffffffffffffffffffffffff16815260200191505060405180910390f35b6102836004803603602081101561026d57600080fd5b8101908080359060200190929190505050610790565b005b34801561029157600080fd5b506102de600480360360408110156102a857600080fd5b81019080803573ffffffffffffffffffffffffffffffffffffffff16906020019092919080359060200190929190505050610924565b6040518082815260200191505060405180910390f35b34801561030057600080fd5b50610309610952565b604051808381526020018281526020019250505060405180910390f35b34801561033257600080fd5b5061035f6004803603602081101561034957600080fd5b8101908080359060200190929190505050610963565b005b34801561036d57600080fd5b50610376610a52565b6040518082815260200191505060405180910390f35b34801561039857600080fd5b506103c5600480360360208110156103af57600080fd5b8101908080359060200190929190505050610a58565b6040518082815260200191505060405180910390f35b3480156103e757600080fd5b506103f0610b91565b6040518082815260200191505060405180910390f35b34801561041257600080fd5b5061043f6004803603602081101561042957600080fd5b8101908080359060200190929190505050610b97565b6040518082815260200191505060405180910390f35b6104816004803603602081101561046b57600080fd5b8101908080359060200190929190505050610e09565b604051808215151515815260200191505060405180910390f35b3480156104a757600080fd5b506104d4600480360360208110156104be57600080fd5b810190808035906020019092919050505061107b565b6040518082815260200191505060405180910390f35b3480156104f657600080fd5b506105396004803603602081101561050d57600080fd5b81019080803573ffffffffffffffffffffffffffffffffffffffff169060200190929190505050611093565b6040518080602001828103825283818151815260200191508051906020019060200280838360005b8381101561057c578082015181840152602081019050610561565b505050509050019250505060405180910390f35b60136020528060005260406000206000915090505481565b601560009054906101000a900473ffffffffffffffffffffffffffffffffffffffff1673ffffffffffffffffffffffffffffffffffffffff163373ffffffffffffffffffffffffffffffffffffffff161461066b576040517f08c379a00000000000000000000000000000000000000000000000000000000081526004018080602001828103825260178152602001807f4f6e6c79206f776e65722063616e20776974686472617700000000000000000081525060200191505060405180910390fd5b601560009054906101000a900473ffffffffffffffffffffffffffffffffffffffff1673ffffffffffffffffffffffffffffffffffffffff166108fc479081150290604051600060405180830381858888f193505050501580156106d3573d6000803e3d6000fd5b50565b6106de61116c565b600160108060200260405190810160405280929190826010801561074d576020028201915b8160009054906101000a900473ffffffffffffffffffffffffffffffffffffffff1673ffffffffffffffffffffffffffffffffffffffff1681526020019060010190808311610703575b5050505050905090565b60005481565b6001816010811061076a57fe5b016000915054906101000a900473ffffffffffffffffffffffffffffffffffffffff1681565b600f811115610807576040517f08c379a000000000000000000000000000000000000000000000000000000000815260040180806020018281038252600d8152602001807f496e76616c69642070657449640000000000000000000000000000000000000081525060200191505060405180910390fd5b662386f26fc10000341015610884576040517f08c379a000000000000000000000000000000000000000000000000000000000815260040180806020018281038252601c8152602001807f4d696e696d756d20646f6e6174696f6e20697320302e3031204554480000000081525060200191505060405180910390fd5b3460146000838152602001908152602001600020600082825401925050819055507f1b606d34afacd55873aba0fd274841a10c63e18455f2dffebad2fc60a36b2c83813334604051808481526020018373ffffffffffffffffffffffffffffffffffffffff1673ffffffffffffffffffffffffffffffffffffffff168152602001828152602001935050505060405180910390a16109218161112a565b50565b6016602052816000526040600020818154811061093d57fe5b90600052602060002001600091509150505481565b600080601154601254915091509091565b600f8111156109da576040517f08c379a000000000000000000000000000000000000000000000000000000000815260040180806020018281038252600d8152602001807f496e76616c69642070657449640000000000000000000000000000000000000081525060200191505060405180910390fd5b60136000828152602001908152602001600020600081548092919060010191905055507f84a5508ca0d85b42a876e75a9126f3ae7b43617ce60b170bf8805d34630bc654816013600084815260200190815260200160002054604051808381526020018281526020019250505060405180910390a150565b60115481565b6000600f821115610ad1576040517f08c379a000000000000000000000000000000000000000000000000000000000815260040180806020018281038252600d8152602001807f496e76616c69642070657449640000000000000000000000000000000000000081525060200191505060405180910390fd5b3360018360108110610adf57fe5b0160006101000a81548173ffffffffffffffffffffffffffffffffffffffff021916908373ffffffffffffffffffffffffffffffffffffffff1602179055507f01c07ea0ae04d5e8aae2bb4f2d6bf449288c76006383b9ffaed4d85ca8d9a9518233604051808381526020018273ffffffffffffffffffffffffffffffffffffffff1673ffffffffffffffffffffffffffffffffffffffff1681526020019250505060405180910390a1819050919050565b60125481565b6000600f821115610c10576040517f08c379a000000000000000000000000000000000000000000000000000000000815260040180806020018281038252600d8152602001807f496e76616c69642070657449640000000000000000000000000000000000000081525060200191505060405180910390fd5b600073ffffffffffffffffffffffffffffffffffffffff1660018360108110610c3557fe5b0160009054906101000a900473ffffffffffffffffffffffffffffffffffffffff1673ffffffffffffffffffffffffffffffffffffffff1614610ce0576040517f08c379a00000000000000000000000000000000000000000000000000000000081526004018080602001828103825260138152602001807f50657420616c72656164792061646f707465640000000000000000000000000081525060200191505060405180910390fd5b3360018360108110610cee57fe5b0160006101000a81548173ffffffffffffffffffffffffffffffffffffffff021916908373ffffffffffffffffffffffffffffffffffffffff1602179055507f01c07ea0ae04d5e8aae2bb4f2d6bf449288c76006383b9ffaed4d85ca8d9a9518233604051808381526020018273ffffffffffffffffffffffffffffffffffffffff1673ffffffffffffffffffffffffffffffffffffffff1681526020019250505060405180910390a1601660003373ffffffffffffffffffffffffffffffffffffffff1673ffffffffffffffffffffffffffffffffffffffff168152602001908152602001600020829080600181540180825580915050906001820390600052602060002001600090919290919091505550819050919050565b6000600f821115610e82576040517f08c379a000000000000000000000000000000000000000000000000000000000815260040180806020018281038252600d8152602001807f496e76616c69642070657449640000000000000000000000000000000000000081525060200191505060405180910390fd5b3373ffffffffffffffffffffffffffffffffffffffff1660018360108110610ea657fe5b0160009054906101000a900473ffffffffffffffffffffffffffffffffffffffff1673ffffffffffffffffffffffffffffffffffffffff1614610f51576040517f08c379a00000000000000000000000000000000000000000000000000000000081526004018080602001828103825260198152602001807f596f75206469646e27742061646f70742074686973207065740000000000000081525060200191505060405180910390fd5b662386f26fc10000341015610fb1576040517f08c379a000000000000000000000000000000000000000000000000000000000815260040180806020018281038252602a815260200180611190602a913960400191505060405180910390fd5b600060018360108110610fc057fe5b0160006101000a81548173ffffffffffffffffffffffffffffffffffffffff021916908373ffffffffffffffffffffffffffffffffffffffff1602179055507f3287d0903fab6157e0587a1e22a9523e456d718705a1ab5b14e2f3c50db07c1f823334604051808481526020018373ffffffffffffffffffffffffffffffffffffffff1673ffffffffffffffffffffffffffffffffffffffff168152602001828152602001935050505060405180910390a160019050919050565b60146020528060005260406000206000915090505481565b6060601660008373ffffffffffffffffffffffffffffffffffffffff1673ffffffffffffffffffffffffffffffffffffffff16815260200190815260200160002080548060200260200160405190810160405280929190818152602001828054801561111e57602002820191906000526020600020905b81548152602001906001019080831161110a575b50505050509050919050565b60125460146000838152602001908152602001600020541115611169576014600082815260200190815260200160002054601281905550806011819055505b50565b60405180610200016040528060109060208202803883398082019150509050509056fe596f75206d75737420706179206174206c6561737420302e303120657468657220746f2072657475726ea265627a7a723158205b083758146661da2e5909c8f850d1468c2f6ce610054ffa18d878aafbb4bdf864736f6c63430005110032",
  "source": "pragma solidity ^0.5.0;\r\n\r\ncontract Adoption {\r\n    uint256 public maxAdoptionCount = 0;\r\n    address[16] public adopters;\r\n    uint public topDonatedPetId;\r\n    uint public maxDonation;\r\n\r\n\r\n    event Adopted(uint petId, address adopter);\r\n    event Returned(uint petId, address returner, uint amount);\r\n    event Voted(uint petId, uint newVoteCount);\r\n    event Donated(uint petId, address donor, uint amount);\r\n\r\n    // Store vote counts\r\n    mapping(uint => uint) public voteCounts;\r\n\r\n    // Store donations value\r\n    mapping(uint => uint) public donations;\r\n    // Adopting a pet\r\n    function adopt(uint petId) public returns (uint) {\r\n        require(petId <= 15, \"Invalid petId\");\r\n        adopters[petId] = msg.sender;\r\n        emit Adopted(petId, msg.sender);\r\n        return petId;\r\n    }\r\n\r\n    // Returning a pet (with fee)\r\n    function returnPet(uint petId) public payable returns (bool) {\r\n        require(petId <= 15, \"Invalid petId\");\r\n        require(adopters[petId] == msg.sender, \"You didn't adopt this pet\");\r\n        require(msg.value >= 0.01 ether, \"You must pay at least 0.01 ether to return\");\r\n\r\n        adopters[petId] = address(0);\r\n        emit Returned(petId, msg.sender, msg.value);\r\n        return true;\r\n    }\r\n\r\n    // Voting for a pet\r\n    function votePet(uint petId) public {\r\n            require(petId <= 15, \"Invalid petId\");\r\n            voteCounts[petId]++;\r\n            emit Voted(petId, voteCounts[petId]);\r\n        }\r\n\r\n    // Donate for a particular pet\r\n    function donateToPet(uint petId) public payable {\r\n        require(petId <= 15, \"Invalid petId\");\r\n        require(msg.value >= 0.01 ether, \"Minimum donation is 0.01 ETH\");\r\n\r\n        donations[petId] += msg.value;\r\n        emit Donated(petId, msg.sender, msg.value);\r\n        updateTopDonatedPet(petId);\r\n    }\r\n\r\n\r\n    // Withdraw funds collected (only contract owner)\r\n    address payable owner;\r\n\r\n    constructor() public {\r\n        owner = msg.sender;\r\n    }\r\n\r\n    function withdraw() public {\r\n        require(msg.sender == owner, \"Only owner can withdraw\");\r\n        owner.transfer(address(this).balance);\r\n    }\r\n\r\n    // Retrieving the adopters\r\n    function getAdopters() public view returns (address[16] memory) {\r\n        return adopters;\r\n    }\r\n     \r\n     \r\n    // Add-on Feature 10: User adoption history \r\n    mapping(address => uint[]) public userAdoptionHistory; \r\n\r\n    // Modified adopt wrapper to be called by frontend instead of original adopt()\r\n    function adoptWithTracking(uint petId) public returns (uint) {\r\n        require(petId <= 15, \"Invalid petId\");\r\n        require(adopters[petId] == address(0), \"Pet already adopted\");\r\n\r\n        adopters[petId] = msg.sender;\r\n        emit Adopted(petId, msg.sender);\r\n\r\n        // Feature 10: track user history\r\n        userAdoptionHistory[msg.sender].push(petId);\r\n\r\n        return petId;\r\n    }\r\n\r\n    // Optional: get full adoption history of a user\r\n    function getUserAdoptionHistory(address user) public view returns (uint[] memory) {\r\n        return userAdoptionHistory[user];\r\n    }\r\n\r\n    function updateTopDonatedPet(uint petId) internal {\r\n    if (donations[petId] > maxDonation) {\r\n        maxDonation = donations[petId];\r\n        topDonatedPetId = petId;\r\n        }\r\n    }\r\n\r\nfunction getTopDonatedPet() public view returns (uint petId, uint amount) {\r\n    return (topDonatedPetId, maxDonation);\r\n    }\r\n\r\n\r\n}\r\n",
  "sourcePath": "C:/Users/Bruce Lan/Desktop/UOT/Github/APS-1050-Project/contracts/Adoption.sol",
  "compiler": {
    "name": "solc",
    "version": "0.5.17+commit.d19bba13.Emscripten.clang"
  },
  "schemaVersion": "3.0.22",
  "updatedAt": "2025-07-29T10:38:03.480Z",
  "networkType": "ethereum",
  "devdoc": {
    "methods": {}
  },
  "userdoc": {
    "methods": {}
  }
}