{
  "contractName": "Shop",
  "abi": [
    {
      "anonymous": false,
      "inputs": [
        {
          "indexed": false,
          "internalType": "uint256",
          "name": "productId",
          "type": "uint256"
        },
        {
          "indexed": false,
          "internalType": "address",
          "name": "buyer",
          "type": "address"
        }
      ],
      "name": "Bought",
      "type": "event"
    },
    {
      "constant": true,
      "inputs": [
        {
          "internalType": "uint256",
          "name": "",
          "type": "uint256"
        }
      ],
      "name": "buyers",
      "outputs": [
        {
          "internalType": "address",
          "name": "",
          "type": "address"
        }
      ],
      "payable": false,
      "stateMutability": "view",
      "type": "function"
    },
    {
      "constant": false,
      "inputs": [
        {
          "internalType": "uint256",
          "name": "productId",
          "type": "uint256"
        }
      ],
      "name": "buyProduct",
      "outputs": [],
      "payable": true,
      "stateMutability": "payable",
      "type": "function"
    },
    {
      "constant": true,
      "inputs": [],
      "name": "getBuyers",
      "outputs": [
        {
          "internalType": "address[6]",
          "name": "",
          "type": "address[6]"
        }
      ],
      "payable": false,
      "stateMutability": "view",
      "type": "function"
    }
  ],
  "bytecode": "0x608060405234801561001057600080fd5b506104b7806100206000396000f3fe6080604052600436106100345760003560e01c80638642269e14610039578063f2aa821814610067578063f64bfaba146100e2575b600080fd5b6100656004803603602081101561004f57600080fd5b8101908080359060200190929190505050610135565b005b34801561007357600080fd5b506100a06004803603602081101561008a57600080fd5b81019080803590602001909291905050506103ac565b604051808273ffffffffffffffffffffffffffffffffffffffff1673ffffffffffffffffffffffffffffffffffffffff16815260200191505060405180910390f35b3480156100ee57600080fd5b506100f76103df565b6040518082600660200280838360005b83811015610122578082015181840152602081019050610107565b5050505090500191505060405180910390f35b600681106101ab576040517f08c379a00000000000000000000000000000000000000000000000000000000081526004018080602001828103825260118152602001807f496e76616c69642070726f64756374496400000000000000000000000000000081525060200191505060405180910390fd5b600073ffffffffffffffffffffffffffffffffffffffff16600082600681106101d057fe5b0160009054906101000a900473ffffffffffffffffffffffffffffffffffffffff1673ffffffffffffffffffffffffffffffffffffffff161461027b576040517f08c379a00000000000000000000000000000000000000000000000000000000081526004018080602001828103825260148152602001807f50726f6475637420616c726561647920736f6c6400000000000000000000000081525060200191505060405180910390fd5b600034116102f1576040517f08c379a000000000000000000000000000000000000000000000000000000000815260040180806020018281038252601b8152602001807f4d7573742073656e6420736f6d6520657468657220746f20627579000000000081525060200191505060405180910390fd5b33600082600681106102ff57fe5b0160006101000a81548173ffffffffffffffffffffffffffffffffffffffff021916908373ffffffffffffffffffffffffffffffffffffffff1602179055507fc54c8cc1c7525b424ec71b685c00d9355581a280488018c22005332ceb2fd4068133604051808381526020018273ffffffffffffffffffffffffffffffffffffffff1673ffffffffffffffffffffffffffffffffffffffff1681526020019250505060405180910390a150565b600081600681106103b957fe5b016000915054906101000a900473ffffffffffffffffffffffffffffffffffffffff1681565b6103e7610460565b6000600680602002604051908101604052809291908260068015610456576020028201915b8160009054906101000a900473ffffffffffffffffffffffffffffffffffffffff1673ffffffffffffffffffffffffffffffffffffffff168152602001906001019080831161040c575b5050505050905090565b6040518060c0016040528060069060208202803883398082019150509050509056fea265627a7a72315820d17371c79abfcc7f0c1836cb15f9cc038fa63b13c50431d1bc15b08de6d7712564736f6c63430005110032",
  "source": "pragma solidity ^0.5.0;\r\n\r\ncontract Shop {\r\n    address[6] public buyers;  \r\n\r\n    event Bought(uint productId, address buyer);\r\n\r\n    function buyProduct(uint productId) public payable {\r\n        require(productId < buyers.length, \"Invalid productId\");\r\n        require(buyers[productId] == address(0), \"Product already sold\");\r\n        require(msg.value > 0, \"Must send some ether to buy\");\r\n\r\n        buyers[productId] = msg.sender;\r\n\r\n        emit Bought(productId, msg.sender);\r\n    }\r\n\r\n    function getBuyers() public view returns (address[6] memory) {\r\n        return buyers;\r\n    }\r\n}\r\n",
  "sourcePath": "C:/Users/zheng/OneDrive/Documents/APS-1050-Project/contracts/Shop.sol",
  "compiler": {
    "name": "solc",
    "version": "0.5.17+commit.d19bba13.Emscripten.clang"
  },
  "schemaVersion": "3.0.22",
  "updatedAt": "2025-07-29T00:59:21.563Z",
  "networkType": "ethereum",
  "devdoc": {
    "methods": {}
  },
  "userdoc": {
    "methods": {}
  }
}